:100000000C9434000C9451000C9451000C94510049
:100010000C9451000C9451000C9451000C9451001C
:100020000C9451000C9451000C9451000C9451000C
:100030000C9451000C9451000C9451000C945100FC
:100040000C9451000C9451000C9451000C945100EC
:100050000C9451000C9451000C9451000C945100DC
:100060000C9451000C94510011241FBECFEFD8E026
:10007000DEBFCDBF11E0A0E0B1E0E8E4F5E002C0F2
:1000800005900D92AC37B107D9F721E0ACE7B1E0AC
:1000900001C01D92A138B207E1F70E94DA010C9469
:1000A000A2020C94000080FF04C09BB190629BB937
:1000B00003C09BB19F7D9BB981FF04C09BB190643D
:1000C0009BB903C09BB19F7B9BB982FF04C09BB1CE
:1000D00090689BB903C09BB19F779BB983FF04C015
:1000E0008BB184608BB903C08BB18B7F8BB98BB123
:1000F00080618BB987EC90E00197F1F700C00000B8
:100100008BB18F7E8BB90895CF93C82F8BB1877F2A
:100110008BB900008C2F82958F700E9453008C2F1A
:100120008F700E9453008FE99FE00197F1F700C0A4
:100130000000CF910895CF938AB188608AB98AB1BF
:1001400080618AB98BB18F7E8BB98BB1877F8BB978
:100150008AB180628AB98AB180648AB98AB18068BA
:100160008AB98AB184608AB92FEF89EF90E0215073
:1001700080409040E1F700C00000C0E00AC083E08A
:100180000E9453008FE19EE40197F1F700C0000048
:10019000CF5FC330A0F383E30E94840082E30E9418
:1001A000840088E20E9484008CE00E94840086E043
:1001B0000E94840081E00E9484008FED9EE20197FE
:1001C000F1F700C00000CF910895CF93C82F8BB1F5
:1001D00088608BB900008C2F82958F700E9453002D
:1001E0008C2F8F700E9453008FE99FE00197F1F7E9
:1001F00000C00000CF910895CF93DF93EC0103C0BE
:100200000E94E500219688818111FACFDF91CF917C
:10021000089584B1816084B984B1826084B984B165
:10022000846084B984B1886084B987B18E7F87B9CE
:1002300087B18D7F87B987B18B7F87B987B1877F7A
:1002400087B988B1816088B988B1826088B988B17E
:10025000846088B988B1886088B90895309909C0E8
:10026000309BFECF319BFCCF329BFACF339BF8CF34
:1002700031C0809180018F5F80938001319909C0E6
:10028000309BFECF319BFCCF329BFACF339BF8CF14
:1002900023C08F5F80938001329909C0309BFECFCD
:1002A000319BFCCF329BFACF339BF8CF17C08F5FC7
:1002B00080938001339909C0309BFECF319BFCCFE6
:1002C000329BFACF339BF8CF0BC08F5F80938001B6
:1002D00080E0089581E0089581E0089581E0089527
:1002E00081E0089595B1916095B995B1926095B905
:1002F00095B1946095B995B1986095B9823069F0DF
:1003000018F4813031F014C0833059F0843069F032
:100310000FC085B18E7F85B90BC085B18D7F85B942
:1003200007C085B18B7F85B903C085B1877F85B94B
:10033000000008958FE39CE90197F1F700C00000E9
:100340001092800181E00E9472010E942E01882398
:1003500039F0E0918001F0E0E050FF4F8081089596
:1003600082E00E9472010E942E01882339F0E09100
:100370008001F0E0E050FF4F8081089583E00E940B
:1003800072010E942E01882339F0E0918001F0E093
:10039000E050FF4F8081089584E00E9472010E9426
:1003A0002E01882331F0E0918001F0E0E050FF4F12
:1003B000808108950E949B0085E191E00E94FC00ED
:1003C0002FEF85EA9EE0215080409040E1F700C089
:1003D000000081E00E94840089E291E00E94FC001C
:1003E00080EC0E9484000E940901C0E0D0E00E94DD
:1003F0009A01882339F0FE01E458FE4F80830E9461
:10040000E5002196C430D10591F72FEF82E597E002
:10041000215080409040E1F700C0000081E00E9440
:1004200084008BE391E00E94FC0080EC0E94840039
:10043000C0E0D0E010C0FE01E458FE4F80810E9471
:10044000E5002FEF80E792E0215080409040E1F7F7
:1004500000C000002196C430D1056CF32FEF81EE6F
:1004600094E0215080409040E1F700C0000081E01E
:100470000E94840090917C018091100198134AC0E1
:1004800090917D0180911101981344C090917E015B
:100490008091120198133EC090917F0180911301C9
:1004A000981338C089E491E00E94FC0080EC0E941F
:1004B00084002FEF81EE94E0215080409040E1F7DE
:1004C00000C0000088E591E00E94FC002FEF89E663
:1004D00098E1215080409040E1F700C0000081E0A9
:1004E0000E94840085E191E00E94FC002FEF84E3EC
:1004F0009CE0215080409040E1F700C0000081E086
:100500000E94840089E291E00E94FC0080EC0E943D
:1005100084006BCF8BE691E00E94FC002FEF83EC10
:1005200099E0215080409040E1F700C0000081E058
:100530000E94840089E291E00E94FC0080EC0E940D
:08054000840053CFF894FFCFB3
:100548003132334134353642373839432A3023443F
:1005580030413843002020204D5920484F4D452038
:100568004C4947485420202000494E47524553459E
:10057800204C4120434C4156453A00484120494EC1
:100588004752455341444F3A00434C415645204356
:100598004F52524543544100504F52204641564F06
:1005A800522C20494E475245534500434C4156452D
:0C05B80020494E434F525245435441002D
:00000001FF
